:020000040000FA
:08000000803102288731FD2F39
:100C4600523051018D008F019101023093009201C3
:100C560008004F0196019701980199019A019B019D
:100C66009C019D01080086312C268631863140265E
:100C76008631863123268631080040019801C0302E
:100C860099009A010F30920070309300073094005B
:100C96007E01CE01C301B801C401B901CF01BA0179
:100CA600C501D0013730BB00F030C600FF30D1009F
:100CB6003F30BC00F030C700FF30D200080086315C
:100CC6003626863140010E080139A000A101A03563
:100CD600A10DA035A10DA035A10D0C0C890C013973
:100CE600A200A301A235A30DA235A30D0C0C013958
:100CF600A400A501A435A50D0C0801392407A600FA
:100D060025080318250AA70022082607A800230895
:100D1600273DA90020082807AA002108293DAB0085
:100D26002A08AC002B08AD002D08F1002C08F000B5
:100D36000030F200F3008631EA2686310630890B50
:100D4600A22E000040010D0E890C0139A000A10160
:100D5600A035A10DA035A10DA035A10D0D0E0139AF
:100D6600A200A301A235A30DA235A30D0E0C890C7A
:100D76000139A400A501A435A50D0E0C01392407DF
:100D8600A60025080318250AA70022082607A8009A
:100D96002308273DA90020082807AA002108293D85
:100DA600AB002A08AE002B08AF002F08F1002E0872
:100DB600F0000130F2000030F3008631EA26863179
:100DC6000630890BE42E0000652E80310228720859
:100DD6007304031DEF2EF02EF42E400119139917FC
:100DE600F72E400119179913FB01F701F601FA01D5
:100DF600F901F501F8018D2F0130F700F600FA0030
:100E0600F900F500F4007408F800C42F0130F90069
:100E1600F4007408F500C42F0130FB00FA00F60058
:100E2600F500F4007408F800C42F0130FB00FA0046
:100E3600F900F500F4007408F800C42F0130FB0037
:100E4600F700F900F4007408F500C42F0130FB0028
:100E5600F700FA00F900F4007408F800C42F013016
:100E6600FB00F700F600FA00F900F4007408F80039
:100E7600C42F0130F900F500F4007408F800C42FFF
:100E86000130FB00F700F600FA00F900F500F40067
:100E96007408F800C42F0130FB00F700FA00F900CF
:100EA600F500F4007408F800C42F0130FB00F600CA
:100EB600FA00F900F500F4007408F800C42F0130B8
:100EC600FB00F700F600FA00F4007408F900C42FDE
:100ED6000130F700F600FA00F4007408F800C42F99
:100EE6000130FB00F600FA00F900F4007408F50082
:100EF600C42F0130FB00F700F600FA00F400740876
:100F0600F800C42F0130FB00F700F600F400740867
:100F1600F800C42F7108003A0319922FC42F7008E5
:100F2600003A0319FF2E013A0319092F033A031950
:100F36000F2F013A0319182F073A0319212F013AE7
:100F46000319292F033A0319322F013A03193C2FAB
:100F56000F3A0319432F013A03194E2F033A031987
:100F6600582F013A0319622F073A03196B2F013ADA
:100F76000319732F033A03197C2F013A0319852F9E
:100F8600C42F78080319C82FC92FCB2F9816CC2F3A
:100F9600981275080319D02FD12FD32F1816D42FD6
:100FA600181279080319D82FD92FDB2F9A16DC2FA0
:100FB6009A127A080319E02FE12FE32F1A16E42F6D
:100FC6001A1276080319E82FE92FEB2F9A15EC2F42
:100FD6009A1177080319F02FF12FF32F1A17F42F10
:100FE6001A137B080319F82FF92FFB2F9A17FC2FDA
:0A0FF6009A13080040018631622EB4
:020000040001F9
:0A000E00DC3FFF3F9F3FFF3FFF3F35
:00000001FF
